{
  "_format": "hh-sol-artifact-1",
  "contractName": "GameFactory",
  "sourceName": "contracts/winGame/GameFactory.sol",
  "abi": [
    {
      "anonymous": false,
      "inputs": [
        {
          "indexed": true,
          "internalType": "address",
          "name": "previousOwner",
          "type": "address"
        },
        {
          "indexed": true,
          "internalType": "address",
          "name": "newOwner",
          "type": "address"
        }
      ],
      "name": "OwnershipTransferred",
      "type": "event"
    },
    {
      "inputs": [
        {
          "internalType": "uint16",
          "name": "playA",
          "type": "uint16"
        },
        {
          "internalType": "uint16",
          "name": "playB",
          "type": "uint16"
        },
        {
          "internalType": "uint32",
          "name": "startTime",
          "type": "uint32"
        }
      ],
      "name": "createGame",
      "outputs": [
        {
          "internalType": "address",
          "name": "game",
          "type": "address"
        }
      ],
      "stateMutability": "nonpayable",
      "type": "function"
    },
    {
      "inputs": [
        {
          "internalType": "uint16",
          "name": "playA",
          "type": "uint16"
        },
        {
          "internalType": "uint16",
          "name": "playB",
          "type": "uint16"
        },
        {
          "internalType": "uint32",
          "name": "startTime",
          "type": "uint32"
        },
        {
          "internalType": "uint16",
          "name": "_win",
          "type": "uint16"
        }
      ],
      "name": "deposit",
      "outputs": [],
      "stateMutability": "payable",
      "type": "function"
    },
    {
      "inputs": [],
      "name": "getAllGames",
      "outputs": [
        {
          "components": [
            {
              "internalType": "uint16",
              "name": "play0",
              "type": "uint16"
            },
            {
              "internalType": "uint16",
              "name": "play1",
              "type": "uint16"
            },
            {
              "internalType": "uint32",
              "name": "startTime",
              "type": "uint32"
            },
            {
              "internalType": "address",
              "name": "addr",
              "type": "address"
            }
          ],
          "internalType": "struct GameFactory.GameItem[]",
          "name": "",
          "type": "tuple[]"
        }
      ],
      "stateMutability": "view",
      "type": "function"
    },
    {
      "inputs": [
        {
          "internalType": "uint16",
          "name": "playA",
          "type": "uint16"
        },
        {
          "internalType": "uint16",
          "name": "playB",
          "type": "uint16"
        },
        {
          "internalType": "uint32",
          "name": "startTime",
          "type": "uint32"
        }
      ],
      "name": "getWiners",
      "outputs": [
        {
          "components": [
            {
              "internalType": "address",
              "name": "owner",
              "type": "address"
            },
            {
              "internalType": "uint256",
              "name": "amount",
              "type": "uint256"
            }
          ],
          "internalType": "struct Order[]",
          "name": "",
          "type": "tuple[]"
        }
      ],
      "stateMutability": "nonpayable",
      "type": "function"
    },
    {
      "inputs": [],
      "name": "owner",
      "outputs": [
        {
          "internalType": "address",
          "name": "",
          "type": "address"
        }
      ],
      "stateMutability": "view",
      "type": "function"
    },
    {
      "inputs": [],
      "name": "renounceOwnership",
      "outputs": [],
      "stateMutability": "nonpayable",
      "type": "function"
    },
    {
      "inputs": [
        {
          "internalType": "uint16",
          "name": "playA",
          "type": "uint16"
        },
        {
          "internalType": "uint16",
          "name": "playB",
          "type": "uint16"
        },
        {
          "internalType": "uint32",
          "name": "startTime",
          "type": "uint32"
        }
      ],
      "name": "sendPrize",
      "outputs": [],
      "stateMutability": "nonpayable",
      "type": "function"
    },
    {
      "inputs": [
        {
          "internalType": "uint16",
          "name": "playA",
          "type": "uint16"
        },
        {
          "internalType": "uint16",
          "name": "playB",
          "type": "uint16"
        },
        {
          "internalType": "uint32",
          "name": "startTime",
          "type": "uint32"
        },
        {
          "internalType": "uint16",
          "name": "_win",
          "type": "uint16"
        }
      ],
      "name": "setWiner",
      "outputs": [],
      "stateMutability": "nonpayable",
      "type": "function"
    },
    {
      "inputs": [
        {
          "internalType": "address",
          "name": "newOwner",
          "type": "address"
        }
      ],
      "name": "transferOwnership",
      "outputs": [],
      "stateMutability": "nonpayable",
      "type": "function"
    }
  ],
  "bytecode": "0x608060405234801561001057600080fd5b5061001a3361001f565b61006f565b600080546001600160a01b038381166001600160a01b0319831681178455604051919092169283917f8be0079c531659141344cd1fd0a4f28419497f9722a3daafe3b4186f6b6457e09190a35050565b61243e8061007e6000396000f3fe608060405260043610620000a25760003560e01c80638da5cb5b1162000071578063db1c45f91162000054578063db1c45f91462000193578063f2fde38b14620001ba578063f773f34f14620001df57600080fd5b80638da5cb5b146200015c57806399765a84146200017c57600080fd5b8063646adde414620000a757806366b9755a14620000e95780636a4a9fd81462000110578063715018a61462000144575b600080fd5b348015620000b457600080fd5b50620000cc620000c636600462000caa565b62000204565b6040516001600160a01b0390911681526020015b60405180910390f35b348015620000f657600080fd5b506200010e6200010836600462000caa565b62000510565b005b3480156200011d57600080fd5b50620001356200012f36600462000caa565b620005e6565b604051620000e0919062000cf4565b3480156200015157600080fd5b506200010e6200066d565b3480156200016957600080fd5b506000546001600160a01b0316620000cc565b6200010e6200018d36600462000d4e565b62000685565b348015620001a057600080fd5b50620001ab620007fd565b604051620000e0919062000dab565b348015620001c757600080fd5b506200010e620001d936600462000e30565b6200089d565b348015620001ec57600080fd5b506200010e620001fe36600462000d4e565b62000933565b60006200021062000aa7565b8261ffff168461ffff16036200026d5760405162461bcd60e51b815260206004820152601b60248201527f47616d65466163746f72793a204944454e544943414c5f504c4159000000000060448201526064015b60405180910390fd5b6000808461ffff168661ffff1610620002885784866200028b565b85855b61ffff8083166000908152600260209081526040808320938516835292815282822063ffffffff8a1683529052205491935091506001600160a01b031615620003175760405162461bcd60e51b815260206004820152601860248201527f47616d65466163746f72793a2047414d455f4558495354530000000000000000604482015260640162000264565b6040517fffff00000000000000000000000000000000000000000000000000000000000060f084811b8216602084015283901b166022820152600090602401604051602081830303815290604052805190602001209050600081848488604051620003829062000c6f565b61ffff938416815292909116602083015263ffffffff1660408201526060018190604051809103906000f5905080158015620003c2573d6000803e3d6000fd5b5061ffff948516600081815260026020908152604080832097891680845297825280832063ffffffff808d1680865291845282852080546001600160a01b03808a1673ffffffffffffffffffffffffffffffffffffffff19909216821790925584516080810186529788529487019a8b5292860191825260608601938452600180548082018255955294517fb10e2d527612073b26eecdfd717e6a320cf44b4afac2b0732d9fcbe2b7fa0cf6909401805499519151935190921668010000000000000000027fffffffff0000000000000000000000000000000000000000ffffffffffffffff9390951664010000000002929092167fffffffff000000000000000000000000000000000000000000000000ffffffff928a16620100000263ffffffff1990991693909916929092179690961795909516959095179490941790925550909150509392505050565b6200051a62000aa7565b60006200052984848462000b03565b9050806001600160a01b0316636ce3fc066040518163ffffffff1660e01b81526004016020604051808303816000875af11580156200056c573d6000803e3d6000fd5b505050506040513d601f19601f8201168201806040525081019062000592919062000e57565b620005e05760405162461bcd60e51b815260206004820152600f60248201527f73656e645072697a65206661696c640000000000000000000000000000000000604482015260640162000264565b50505050565b60606000620005f785858562000b03565b9050806001600160a01b031663222fc6d26040518163ffffffff1660e01b81526004016000604051808303816000875af11580156200063a573d6000803e3d6000fd5b505050506040513d6000823e601f3d908101601f1916820160405262000664919081019062000ef1565b95945050505050565b6200067762000aa7565b62000683600062000c12565b565b8361ffff168161ffff161480620006a357508261ffff168161ffff16145b80620006c15750620006b6838562000fd7565b61ffff168161ffff16145b620006fe5760405162461bcd60e51b815260206004820152600c60248201526b696e76616c6964207465616d60a01b604482015260640162000264565b60006200070d85858562000b03565b6040517fe6deefa9000000000000000000000000000000000000000000000000000000008152336004820181905261ffff8516602483015291925034906001600160a01b0384169063e6deefa990839060440160206040518083038185885af11580156200077f573d6000803e3d6000fd5b50505050506040513d601f19601f82011682018060405250810190620007a6919062000e57565b620007f45760405162461bcd60e51b815260206004820152600d60248201527f4465706f736974206661696c6400000000000000000000000000000000000000604482015260640162000264565b50505050505050565b60606001805480602002602001604051908101604052809291908181526020016000905b8282101562000894576000848152602090819020604080516080810182529185015461ffff80821684526201000082041683850152640100000000810463ffffffff16918301919091526801000000000000000090046001600160a01b0316606082015282526001909201910162000821565b50505050905090565b620008a762000aa7565b6001600160a01b038116620009255760405162461bcd60e51b815260206004820152602660248201527f4f776e61626c653a206e6577206f776e657220697320746865207a65726f206160448201527f6464726573730000000000000000000000000000000000000000000000000000606482015260840162000264565b620009308162000c12565b50565b6200093d62000aa7565b8361ffff168161ffff1614806200095b57508261ffff168161ffff16145b806200097957506200096e838562000fd7565b61ffff168161ffff16145b620009b65760405162461bcd60e51b815260206004820152600c60248201526b696e76616c6964207465616d60a01b604482015260640162000264565b6000620009c585858562000b03565b6040517f4cf8e0c300000000000000000000000000000000000000000000000000000000815261ffff841660048201529091506001600160a01b03821690634cf8e0c3906024016020604051808303816000875af115801562000a2c573d6000803e3d6000fd5b505050506040513d601f19601f8201168201806040525081019062000a52919062000e57565b62000aa05760405162461bcd60e51b815260206004820152600c60248201527f73657457696e206661696c640000000000000000000000000000000000000000604482015260640162000264565b5050505050565b6000546001600160a01b03163314620006835760405162461bcd60e51b815260206004820181905260248201527f4f776e61626c653a2063616c6c6572206973206e6f7420746865206f776e6572604482015260640162000264565b60008261ffff168461ffff160362000b5e5760405162461bcd60e51b815260206004820152601b60248201527f47616d65466163746f72793a204944454e544943414c5f504c41590000000000604482015260640162000264565b6000808461ffff168661ffff161062000b7957848662000b7c565b85855b61ffff8083166000908152600260209081526040808320938516835292815282822063ffffffff8a1683529052205491935091506001600160a01b03168062000c085760405162461bcd60e51b815260206004820152601e60248201527f47616d65466163746f72793a2047414d45204953204e4f542045584953540000604482015260640162000264565b9695505050505050565b600080546001600160a01b0383811673ffffffffffffffffffffffffffffffffffffffff19831681178455604051919092169283917f8be0079c531659141344cd1fd0a4f28419497f9722a3daafe3b4186f6b6457e09190a35050565b6113fc806200100d83390190565b803561ffff8116811462000c9057600080fd5b919050565b803563ffffffff8116811462000c9057600080fd5b60008060006060848603121562000cc057600080fd5b62000ccb8462000c7d565b925062000cdb6020850162000c7d565b915062000ceb6040850162000c95565b90509250925092565b602080825282518282018190526000919060409081850190868401855b8281101562000d4157815180516001600160a01b0316855286015186850152928401929085019060010162000d11565b5091979650505050505050565b6000806000806080858703121562000d6557600080fd5b62000d708562000c7d565b935062000d806020860162000c7d565b925062000d906040860162000c95565b915062000da06060860162000c7d565b905092959194509250565b602080825282518282018190526000919060409081850190868401855b8281101562000d41578151805161ffff90811686528782015116878601528581015163ffffffff16868601526060908101516001600160a01b0316908501526080909301929085019060010162000dc8565b6001600160a01b03811681146200093057600080fd5b60006020828403121562000e4357600080fd5b813562000e508162000e1a565b9392505050565b60006020828403121562000e6a57600080fd5b8151801515811462000e5057600080fd5b634e487b7160e01b600052604160045260246000fd5b6040805190810167ffffffffffffffff8111828210171562000eb75762000eb762000e7b565b60405290565b604051601f8201601f1916810167ffffffffffffffff8111828210171562000ee95762000ee962000e7b565b604052919050565b6000602080838503121562000f0557600080fd5b825167ffffffffffffffff8082111562000f1e57600080fd5b818501915085601f83011262000f3357600080fd5b81518181111562000f485762000f4862000e7b565b62000f58848260051b0162000ebd565b818152848101925060069190911b83018401908782111562000f7957600080fd5b928401925b8184101562000fcc576040848903121562000f995760008081fd5b62000fa362000e91565b845162000fb08162000e1a565b8152848601518682015283526040909301929184019162000f7e565b979650505050505050565b600061ffff8083168185168083038211156200100357634e487b7160e01b600052601160045260246000fd5b0194935050505056fe6080604052605a600155662386f26fc100006002553480156200002157600080fd5b50604051620013fc380380620013fc833981016040819052620000449162000286565b6200004f33620001a9565b620000956040518060400160405280600e81526020016d18480f4809590ec818880f48095960921b8152508461ffff168461ffff16620001f960201b62000a2d1760201c565b60008361ffff16118015620000af575060208361ffff1611155b620000f35760405162461bcd60e51b815260206004820152600f60248201526e1d19585b481a59081a5b9d985b1a59608a1b60448201526064015b60405180910390fd5b60008261ffff161180156200010d575060208261ffff1611155b6200014d5760405162461bcd60e51b815260206004820152600f60248201526e1d19585b481a59081a5b9d985b1a59608a1b6044820152606401620000ea565b6000805463ffffffff60a01b1916600160a01b61ffff9586160261ffff60b01b191617600160b01b93909416929092029290921763ffffffff60c01b1916600160c01b63ffffffff939093169290920291909117905562000343565b600080546001600160a01b038381166001600160a01b0319831681178455604051919092169283917f8be0079c531659141344cd1fd0a4f28419497f9722a3daafe3b4186f6b6457e09190a35050565b620002488383836040516024016200021493929190620002dc565b60408051601f198184030181529190526020810180516001600160e01b0390811663ca47c4eb60e01b179091526200024d16565b505050565b80516a636f6e736f6c652e6c6f67602083016000808483855afa5050505050565b805161ffff811681146200028157600080fd5b919050565b6000806000606084860312156200029c57600080fd5b620002a7846200026e565b9250620002b7602085016200026e565b9150604084015163ffffffff81168114620002d157600080fd5b809150509250925092565b606081526000845180606084015260005b818110156200030c5760208188018101516080868401015201620002ed565b818111156200031f576000608083860101525b5060208301949094525060408101919091526080601f909201601f19160101919050565b6110a980620003536000396000f3fe6080604052600436106100b15760003560e01c8063715018a611610069578063d34bb3651161004e578063d34bb365146101db578063e6deefa9146101fb578063f2fde38b1461020e57600080fd5b8063715018a61461019c5780638da5cb5b146101b357600080fd5b806331baf95b1161009a57806331baf95b1461011c5780634cf8e0c3146101575780636ce3fc061461018757600080fd5b80630fcc1dfd146100b6578063222fc6d2146100fa575b600080fd5b3480156100c257600080fd5b506100d66100d1366004610e30565b61022e565b604080516001600160a01b0390931683526020830191909152015b60405180910390f35b34801561010657600080fd5b5061010f610274565b6040516100f19190610e5a565b34801561012857600080fd5b50610149610137366004610eb2565b60066020526000908152604090205481565b6040519081526020016100f1565b34801561016357600080fd5b50610177610172366004610eb2565b6102e9565b60405190151581526020016100f1565b34801561019357600080fd5b5061017761050e565b3480156101a857600080fd5b506101b161068d565b005b3480156101bf57600080fd5b506000546040516001600160a01b0390911681526020016100f1565b3480156101e757600080fd5b506100d66101f6366004610ecd565b6106a1565b610177610209366004610efd565b6106d9565b34801561021a57600080fd5b506101b1610229366004610f30565b61099d565b6004602052816000526040600020818154811061024a57600080fd5b6000918252602090912060029091020180546001909101546001600160a01b039091169250905082565b60606005805480602002602001604051908101604052809291908181526020016000905b828210156102e0576000848152602090819020604080518082019091526002850290910180546001600160a01b03168252600190810154828401529083529092019101610298565b50505050905090565b60006102f3610aa7565b600054600160c01b900463ffffffff1642116103565760405162461bcd60e51b815260206004820152600c60248201527f74696d6520696e76616c6964000000000000000000000000000000000000000060448201526064015b60405180910390fd5b60005461ffff838116600160a01b909204161480610383575060005461ffff838116600160b01b90920416145b806103b557506000546103aa9061ffff600160b01b8204811691600160a01b900416610f61565b61ffff168261ffff16145b6104015760405162461bcd60e51b815260206004820152600b60248201527f77696e20696e76616c6964000000000000000000000000000000000000000000604482015260640161034d565b60035460ff166104785760405162461bcd60e51b8152602060048201526024808201527f63616e2774206368616e676520726573756c742061667465722073656e64207060448201527f72697a6500000000000000000000000000000000000000000000000000000000606482015260840161034d565b600080547fffff0000ffffffffffffffffffffffffffffffffffffffffffffffffffffffff167c010000000000000000000000000000000000000000000000000000000061ffff8516021790556104ce82610b01565b60405161ffff831681527f90ac919cae86f7e88b88d7840d220c9631dad2ef15876e02970aef156bbb347b9060200160405180910390a15060015b919050565b6000610518610aa7565b60035460ff161561056b5760405162461bcd60e51b815260206004820152600d60248201527f6861732053656e645072697a6500000000000000000000000000000000000000604482015260640161034d565b6003805460ff1916600117905560005b600554811015610685576105e36005828154811061059b5761059b610f87565b6000918252602090912060029091020154600580546001600160a01b0390921691849081106105cc576105cc610f87565b906000526020600020906002020160010154610cf9565b600581815481106105f6576105f6610f87565b6000918252602090912060029091020154600580546001600160a01b03909216917f53a0f5d8d47a34d0cba378f80ad0532c19c6c844120f17f77591fffd6477626291908490811061064a5761064a610f87565b90600052602060002090600202016001015460405161066b91815260200190565b60405180910390a28061067d81610f9d565b91505061057b565b506001905090565b610695610aa7565b61069f6000610d6e565b565b600581815481106106b157600080fd5b6000918252602090912060029091020180546001909101546001600160a01b03909116915082565b60006106e3610aa7565b600054600160c01b900463ffffffff1642106107415760405162461bcd60e51b815260206004820152601060248201527f4265742054696d65206578706972656400000000000000000000000000000000604482015260640161034d565b60025434116107b85760405162461bcd60e51b815260206004820152602760248201527f6465706f7369742076616c7565206d757374206265206772656174657220746860448201527f616e20302e303100000000000000000000000000000000000000000000000000606482015260840161034d565b6001600160a01b03831661080e5760405162461bcd60e51b815260206004820152601760248201527f6465706f736974206164647265737320696e76616c6964000000000000000000604482015260640161034d565b60005461ffff838116600160a01b90920416148061083b575060005461ffff838116600160b01b90920416145b8061086d57506000546108629061ffff600160b01b8204811691600160a01b900416610f61565b61ffff168261ffff16145b6108b95760405162461bcd60e51b815260206004820152600c60248201527f696e76616c6964207465616d0000000000000000000000000000000000000000604482015260640161034d565b61ffff82166000818152600460209081526040808320815180830183526001600160a01b0389811682523482860181815284546001808201875595895287892094516002909102909401805473ffffffffffffffffffffffffffffffffffffffff1916949093169390931782559151920191909155938352600690915281208054909190610948908490610fb6565b90915550506040805134815261ffff841660208201526001600160a01b038516917ff07f65a668691468f110e0111d848a55ac4ea0edc0ff0d7455a33c6f70536eca910160405180910390a250600192915050565b6109a5610aa7565b6001600160a01b038116610a215760405162461bcd60e51b815260206004820152602660248201527f4f776e61626c653a206e6577206f776e657220697320746865207a65726f206160448201527f6464726573730000000000000000000000000000000000000000000000000000606482015260840161034d565b610a2a81610d6e565b50565b610aa2838383604051602401610a4593929190610fce565b60408051601f198184030181529190526020810180517bffffffffffffffffffffffffffffffffffffffffffffffffffffffff167fca47c4eb00000000000000000000000000000000000000000000000000000000179052610dcb565b505050565b6000546001600160a01b0316331461069f5760405162461bcd60e51b815260206004820181905260248201527f4f776e61626c653a2063616c6c6572206973206e6f7420746865206f776e6572604482015260640161034d565b6001546000805490916064916006908490610b309061ffff600160b01b8204811691600160a01b900416610f61565b61ffff908116825260208083019390935260409182016000908120548154600160b01b810484168352600690955283822054600160a01b909504909216815291909120549091610b7f91610fb6565b610b899190610fb6565b610b939190611032565b610b9d9190611051565b61ffff83166000908152600660205260409020549091508015610aa25760005b61ffff8416600090815260046020526040902054811015610cf35761ffff84166000908152600460205260408120805483908110610bfd57610bfd610f87565b600091825260208083206040805180820190915260029093020180546001600160a01b0316835260010154908201819052909250610c3c908686610dec565b6040805180820190915292516001600160a01b039081168452602084019182526005805460018101825560009190915293517f036b6384b5eca791c62761152d0c79bb0604c104a5fb6f4eb0703f3154bb3db06002909502948501805473ffffffffffffffffffffffffffffffffffffffff191691909216179055517f036b6384b5eca791c62761152d0c79bb0604c104a5fb6f4eb0703f3154bb3db1909201919091555080610ceb81610f9d565b915050610bbd565b50505050565b6040516001600160a01b0383169082156108fc029083906000818181858888f19350505050610d6a5760405162461bcd60e51b815260206004820152601360248201527f5472616e7366657220455448206661696c656400000000000000000000000000604482015260640161034d565b5050565b600080546001600160a01b0383811673ffffffffffffffffffffffffffffffffffffffff19831681178455604051919092169283917f8be0079c531659141344cd1fd0a4f28419497f9722a3daafe3b4186f6b6457e09190a35050565b80516a636f6e736f6c652e6c6f67602083016000808483855afa5050505050565b600081610df98585610e0b565b610e039190611051565b949350505050565b6000610e178284611032565b9392505050565b803561ffff8116811461050957600080fd5b60008060408385031215610e4357600080fd5b610e4c83610e1e565b946020939093013593505050565b602080825282518282018190526000919060409081850190868401855b82811015610ea557815180516001600160a01b03168552860151868501529284019290850190600101610e77565b5091979650505050505050565b600060208284031215610ec457600080fd5b610e1782610e1e565b600060208284031215610edf57600080fd5b5035919050565b80356001600160a01b038116811461050957600080fd5b60008060408385031215610f1057600080fd5b610f1983610ee6565b9150610f2760208401610e1e565b90509250929050565b600060208284031215610f4257600080fd5b610e1782610ee6565b634e487b7160e01b600052601160045260246000fd5b600061ffff808316818516808303821115610f7e57610f7e610f4b565b01949350505050565b634e487b7160e01b600052603260045260246000fd5b600060018201610faf57610faf610f4b565b5060010190565b60008219821115610fc957610fc9610f4b565b500190565b606081526000845180606084015260005b81811015610ffc5760208188018101516080868401015201610fdf565b8181111561100e576000608083860101525b5060208301949094525060408101919091526080601f909201601f19160101919050565b600081600019048311821515161561104c5761104c610f4b565b500290565b60008261106e57634e487b7160e01b600052601260045260246000fd5b50049056fea26469706673582212200fd2ede188aec08fcee9f1f6e0cd0a1b6996d1076a6691456050248c99952b1964736f6c634300080f0033a26469706673582212203cca1a2397c97f3c33ed4c808161f200103d6bf2b1a649b1bb4c5187190bf5a164736f6c634300080f0033",
  "linkReferences": {},
  "deployedLinkReferences": {}
}