{
  "_format": "hh-sol-artifact-1",
  "contractName": "Game",
  "sourceName": "contracts/winGame/Game.sol",
  "abi": [
    {
      "inputs": [
        {
          "internalType": "uint16",
          "name": "_a",
          "type": "uint16"
        },
        {
          "internalType": "uint16",
          "name": "_b",
          "type": "uint16"
        },
        {
          "internalType": "uint32",
          "name": "_startTime",
          "type": "uint32"
        }
      ],
      "stateMutability": "nonpayable",
      "type": "constructor"
    },
    {
      "anonymous": false,
      "inputs": [
        {
          "indexed": true,
          "internalType": "address",
          "name": "_depositer",
          "type": "address"
        },
        {
          "indexed": false,
          "internalType": "uint256",
          "name": "_amount",
          "type": "uint256"
        },
        {
          "indexed": false,
          "internalType": "uint16",
          "name": "_win",
          "type": "uint16"
        }
      ],
      "name": "Deposit",
      "type": "event"
    },
    {
      "anonymous": false,
      "inputs": [
        {
          "indexed": true,
          "internalType": "address",
          "name": "previousOwner",
          "type": "address"
        },
        {
          "indexed": true,
          "internalType": "address",
          "name": "newOwner",
          "type": "address"
        }
      ],
      "name": "OwnershipTransferred",
      "type": "event"
    },
    {
      "anonymous": false,
      "inputs": [
        {
          "indexed": true,
          "internalType": "address",
          "name": "_receiver",
          "type": "address"
        },
        {
          "indexed": false,
          "internalType": "uint256",
          "name": "_amount",
          "type": "uint256"
        }
      ],
      "name": "SendPrize",
      "type": "event"
    },
    {
      "anonymous": false,
      "inputs": [
        {
          "indexed": false,
          "internalType": "uint16",
          "name": "_win",
          "type": "uint16"
        }
      ],
      "name": "SetWiner",
      "type": "event"
    },
    {
      "inputs": [
        {
          "internalType": "uint16",
          "name": "",
          "type": "uint16"
        }
      ],
      "name": "balancesMap",
      "outputs": [
        {
          "internalType": "uint256",
          "name": "",
          "type": "uint256"
        }
      ],
      "stateMutability": "view",
      "type": "function"
    },
    {
      "inputs": [
        {
          "internalType": "address",
          "name": "_depositer",
          "type": "address"
        },
        {
          "internalType": "uint16",
          "name": "_win",
          "type": "uint16"
        }
      ],
      "name": "deposit",
      "outputs": [
        {
          "internalType": "bool",
          "name": "",
          "type": "bool"
        }
      ],
      "stateMutability": "payable",
      "type": "function"
    },
    {
      "inputs": [
        {
          "internalType": "uint16",
          "name": "",
          "type": "uint16"
        },
        {
          "internalType": "uint256",
          "name": "",
          "type": "uint256"
        }
      ],
      "name": "depositers",
      "outputs": [
        {
          "internalType": "address",
          "name": "owner",
          "type": "address"
        },
        {
          "internalType": "uint256",
          "name": "amount",
          "type": "uint256"
        }
      ],
      "stateMutability": "view",
      "type": "function"
    },
    {
      "inputs": [
        {
          "internalType": "uint16",
          "name": "_win",
          "type": "uint16"
        }
      ],
      "name": "getBalance",
      "outputs": [
        {
          "internalType": "uint256",
          "name": "",
          "type": "uint256"
        }
      ],
      "stateMutability": "view",
      "type": "function"
    },
    {
      "inputs": [],
      "name": "getWiners",
      "outputs": [
        {
          "components": [
            {
              "internalType": "address",
              "name": "owner",
              "type": "address"
            },
            {
              "internalType": "uint256",
              "name": "amount",
              "type": "uint256"
            }
          ],
          "internalType": "struct Order[]",
          "name": "",
          "type": "tuple[]"
        }
      ],
      "stateMutability": "view",
      "type": "function"
    },
    {
      "inputs": [],
      "name": "owner",
      "outputs": [
        {
          "internalType": "address",
          "name": "",
          "type": "address"
        }
      ],
      "stateMutability": "view",
      "type": "function"
    },
    {
      "inputs": [],
      "name": "renounceOwnership",
      "outputs": [],
      "stateMutability": "nonpayable",
      "type": "function"
    },
    {
      "inputs": [],
      "name": "sendPrize",
      "outputs": [
        {
          "internalType": "bool",
          "name": "",
          "type": "bool"
        }
      ],
      "stateMutability": "nonpayable",
      "type": "function"
    },
    {
      "inputs": [
        {
          "internalType": "uint16",
          "name": "_win",
          "type": "uint16"
        }
      ],
      "name": "setWiner",
      "outputs": [
        {
          "internalType": "bool",
          "name": "",
          "type": "bool"
        }
      ],
      "stateMutability": "nonpayable",
      "type": "function"
    },
    {
      "inputs": [
        {
          "internalType": "address",
          "name": "newOwner",
          "type": "address"
        }
      ],
      "name": "transferOwnership",
      "outputs": [],
      "stateMutability": "nonpayable",
      "type": "function"
    },
    {
      "inputs": [
        {
          "internalType": "uint256",
          "name": "",
          "type": "uint256"
        }
      ],
      "name": "winers",
      "outputs": [
        {
          "internalType": "address",
          "name": "owner",
          "type": "address"
        },
        {
          "internalType": "uint256",
          "name": "amount",
          "type": "uint256"
        }
      ],
      "stateMutability": "view",
      "type": "function"
    },
    {
      "inputs": [
        {
          "internalType": "address payable",
          "name": "receiver",
          "type": "address"
        }
      ],
      "name": "withdraw",
      "outputs": [],
      "stateMutability": "nonpayable",
      "type": "function"
    }
  ],
  "bytecode": "0x60806040526055600155662386f26fc100006002553480156200002157600080fd5b506040516200147738038062001477833981016040819052620000449162000286565b6200004f33620001a9565b620000956040518060400160405280600e81526020016d18480f4809590ec818880f48095960921b8152508461ffff168461ffff16620001f960201b62000aa61760201c565b60008361ffff16118015620000af575060208361ffff1611155b620000f35760405162461bcd60e51b815260206004820152600f60248201526e1d19585b481a59081a5b9d985b1a59608a1b60448201526064015b60405180910390fd5b60008261ffff161180156200010d575060208261ffff1611155b6200014d5760405162461bcd60e51b815260206004820152600f60248201526e1d19585b481a59081a5b9d985b1a59608a1b6044820152606401620000ea565b6000805463ffffffff60a01b1916600160a01b61ffff9586160261ffff60b01b191617600160b01b93909416929092029290921763ffffffff60c01b1916600160c01b63ffffffff939093169290920291909117905562000343565b600080546001600160a01b038381166001600160a01b0319831681178455604051919092169283917f8be0079c531659141344cd1fd0a4f28419497f9722a3daafe3b4186f6b6457e09190a35050565b620002488383836040516024016200021493929190620002dc565b60408051601f198184030181529190526020810180516001600160e01b0390811663ca47c4eb60e01b179091526200024d16565b505050565b80516a636f6e736f6c652e6c6f67602083016000808483855afa5050505050565b805161ffff811681146200028157600080fd5b919050565b6000806000606084860312156200029c57600080fd5b620002a7846200026e565b9250620002b7602085016200026e565b9150604084015163ffffffff81168114620002d157600080fd5b809150509250925092565b606081526000845180606084015260005b818110156200030c5760208188018101516080868401015201620002ed565b818111156200031f576000608083860101525b5060208301949094525060408101919091526080601f909201601f19160101919050565b61112480620003536000396000f3fe6080604052600436106100c75760003560e01c80636ce3fc0611610074578063d34bb3651161004e578063d34bb36514610242578063e6deefa914610262578063f2fde38b1461027557600080fd5b80636ce3fc06146101f0578063715018a6146102055780638da5cb5b1461021a57600080fd5b806344db33fa116100a557806344db33fa146101715780634cf8e0c31461019e57806351cff8d9146101ce57600080fd5b80630fcc1dfd146100cc578063222fc6d214610110578063415016f414610132575b600080fd5b3480156100d857600080fd5b506100ec6100e7366004610ea9565b610295565b604080516001600160a01b0390931683526020830191909152015b60405180910390f35b34801561011c57600080fd5b506101256102db565b6040516101079190610ed3565b34801561013e57600080fd5b5061016361014d366004610f2b565b61ffff1660009081526006602052604090205490565b604051908152602001610107565b34801561017d57600080fd5b5061016361018c366004610f2b565b60066020526000908152604090205481565b3480156101aa57600080fd5b506101be6101b9366004610f2b565b610350565b6040519015158152602001610107565b3480156101da57600080fd5b506101ee6101e9366004610f5b565b610575565b005b3480156101fc57600080fd5b506101be61058a565b34801561021157600080fd5b506101ee610709565b34801561022657600080fd5b506000546040516001600160a01b039091168152602001610107565b34801561024e57600080fd5b506100ec61025d366004610f78565b61071d565b6101be610270366004610f91565b610755565b34801561028157600080fd5b506101ee610290366004610f5b565b610a19565b600460205281600052604060002081815481106102b157600080fd5b6000918252602090912060029091020180546001909101546001600160a01b039091169250905082565b60606005805480602002602001604051908101604052809291908181526020016000905b82821015610347576000848152602090819020604080518082019091526002850290910180546001600160a01b031682526001908101548284015290835290920191016102ff565b50505050905090565b600061035a610b20565b600054600160c01b900463ffffffff1642116103bd5760405162461bcd60e51b815260206004820152600c60248201527f74696d6520696e76616c6964000000000000000000000000000000000000000060448201526064015b60405180910390fd5b60005461ffff838116600160a01b9092041614806103ea575060005461ffff838116600160b01b90920416145b8061041c57506000546104119061ffff600160b01b8204811691600160a01b900416610fdc565b61ffff168261ffff16145b6104685760405162461bcd60e51b815260206004820152600b60248201527f77696e20696e76616c696400000000000000000000000000000000000000000060448201526064016103b4565b60035460ff166104df5760405162461bcd60e51b8152602060048201526024808201527f63616e2774206368616e676520726573756c742061667465722073656e64207060448201527f72697a650000000000000000000000000000000000000000000000000000000060648201526084016103b4565b600080547fffff0000ffffffffffffffffffffffffffffffffffffffffffffffffffffffff167c010000000000000000000000000000000000000000000000000000000061ffff85160217905561053582610b7a565b60405161ffff831681527f90ac919cae86f7e88b88d7840d220c9631dad2ef15876e02970aef156bbb347b9060200160405180910390a15060015b919050565b61057d610b20565b6105878147610d72565b50565b6000610594610b20565b60035460ff16156105e75760405162461bcd60e51b815260206004820152600d60248201527f6861732053656e645072697a650000000000000000000000000000000000000060448201526064016103b4565b6003805460ff1916600117905560005b6005548110156107015761065f6005828154811061061757610617611002565b6000918252602090912060029091020154600580546001600160a01b03909216918490811061064857610648611002565b906000526020600020906002020160010154610d72565b6005818154811061067257610672611002565b6000918252602090912060029091020154600580546001600160a01b03909216917f53a0f5d8d47a34d0cba378f80ad0532c19c6c844120f17f77591fffd647762629190849081106106c6576106c6611002565b9060005260206000209060020201600101546040516106e791815260200190565b60405180910390a2806106f981611018565b9150506105f7565b506001905090565b610711610b20565b61071b6000610de7565b565b6005818154811061072d57600080fd5b6000918252602090912060029091020180546001909101546001600160a01b03909116915082565b600061075f610b20565b600054600160c01b900463ffffffff1642106107bd5760405162461bcd60e51b815260206004820152601060248201527f4265742054696d6520657870697265640000000000000000000000000000000060448201526064016103b4565b60025434116108345760405162461bcd60e51b815260206004820152602760248201527f6465706f7369742076616c7565206d757374206265206772656174657220746860448201527f616e20302e30310000000000000000000000000000000000000000000000000060648201526084016103b4565b6001600160a01b03831661088a5760405162461bcd60e51b815260206004820152601760248201527f6465706f736974206164647265737320696e76616c696400000000000000000060448201526064016103b4565b60005461ffff838116600160a01b9092041614806108b7575060005461ffff838116600160b01b90920416145b806108e957506000546108de9061ffff600160b01b8204811691600160a01b900416610fdc565b61ffff168261ffff16145b6109355760405162461bcd60e51b815260206004820152600c60248201527f696e76616c6964207465616d000000000000000000000000000000000000000060448201526064016103b4565b61ffff82166000818152600460209081526040808320815180830183526001600160a01b0389811682523482860181815284546001808201875595895287892094516002909102909401805473ffffffffffffffffffffffffffffffffffffffff19169490931693909317825591519201919091559383526006909152812080549091906109c4908490611031565b90915550506040805134815261ffff841660208201526001600160a01b038516917ff07f65a668691468f110e0111d848a55ac4ea0edc0ff0d7455a33c6f70536eca910160405180910390a250600192915050565b610a21610b20565b6001600160a01b038116610a9d5760405162461bcd60e51b815260206004820152602660248201527f4f776e61626c653a206e6577206f776e657220697320746865207a65726f206160448201527f646472657373000000000000000000000000000000000000000000000000000060648201526084016103b4565b61058781610de7565b610b1b838383604051602401610abe93929190611049565b60408051601f198184030181529190526020810180517bffffffffffffffffffffffffffffffffffffffffffffffffffffffff167fca47c4eb00000000000000000000000000000000000000000000000000000000179052610e44565b505050565b6000546001600160a01b0316331461071b5760405162461bcd60e51b815260206004820181905260248201527f4f776e61626c653a2063616c6c6572206973206e6f7420746865206f776e657260448201526064016103b4565b6001546000805490916064916006908490610ba99061ffff600160b01b8204811691600160a01b900416610fdc565b61ffff908116825260208083019390935260409182016000908120548154600160b01b810484168352600690955283822054600160a01b909504909216815291909120549091610bf891611031565b610c029190611031565b610c0c91906110ad565b610c1691906110cc565b61ffff83166000908152600660205260409020549091508015610b1b5760005b61ffff8416600090815260046020526040902054811015610d6c5761ffff84166000908152600460205260408120805483908110610c7657610c76611002565b600091825260208083206040805180820190915260029093020180546001600160a01b0316835260010154908201819052909250610cb5908686610e65565b6040805180820190915292516001600160a01b039081168452602084019182526005805460018101825560009190915293517f036b6384b5eca791c62761152d0c79bb0604c104a5fb6f4eb0703f3154bb3db06002909502948501805473ffffffffffffffffffffffffffffffffffffffff191691909216179055517f036b6384b5eca791c62761152d0c79bb0604c104a5fb6f4eb0703f3154bb3db1909201919091555080610d6481611018565b915050610c36565b50505050565b6040516001600160a01b0383169082156108fc029083906000818181858888f19350505050610de35760405162461bcd60e51b815260206004820152601360248201527f5472616e7366657220455448206661696c65640000000000000000000000000060448201526064016103b4565b5050565b600080546001600160a01b0383811673ffffffffffffffffffffffffffffffffffffffff19831681178455604051919092169283917f8be0079c531659141344cd1fd0a4f28419497f9722a3daafe3b4186f6b6457e09190a35050565b80516a636f6e736f6c652e6c6f67602083016000808483855afa5050505050565b600081610e728585610e84565b610e7c91906110cc565b949350505050565b6000610e9082846110ad565b9392505050565b803561ffff8116811461057057600080fd5b60008060408385031215610ebc57600080fd5b610ec583610e97565b946020939093013593505050565b602080825282518282018190526000919060409081850190868401855b82811015610f1e57815180516001600160a01b03168552860151868501529284019290850190600101610ef0565b5091979650505050505050565b600060208284031215610f3d57600080fd5b610e9082610e97565b6001600160a01b038116811461058757600080fd5b600060208284031215610f6d57600080fd5b8135610e9081610f46565b600060208284031215610f8a57600080fd5b5035919050565b60008060408385031215610fa457600080fd5b8235610faf81610f46565b9150610fbd60208401610e97565b90509250929050565b634e487b7160e01b600052601160045260246000fd5b600061ffff808316818516808303821115610ff957610ff9610fc6565b01949350505050565b634e487b7160e01b600052603260045260246000fd5b60006001820161102a5761102a610fc6565b5060010190565b6000821982111561104457611044610fc6565b500190565b606081526000845180606084015260005b81811015611077576020818801810151608086840101520161105a565b81811115611089576000608083860101525b5060208301949094525060408101919091526080601f909201601f19160101919050565b60008160001904831182151516156110c7576110c7610fc6565b500290565b6000826110e957634e487b7160e01b600052601260045260246000fd5b50049056fea26469706673582212206085f1dfe5cf3eafa430442f581a07557bd72ce71e9b9e635f5e45be75b6e5fb64736f6c634300080f0033",
  "linkReferences": {},
  "deployedLinkReferences": {}
}